:020000040800F2
:1000000000280020AD180008351800083D18000829
:10001000451800084D180008551800080000000099
:100020000000000000000000000000005D18000853
:100030006918000800000000751800088118000801
:10004000F5180008F5180008F5180008F51800085C
:10005000F5180008F5180008F5180008F51800084C
:10006000F5180008F5180008F5180008F51800083C
:10007000F5180008F5180008F5180008F51800082C
:10008000F5180008F5180008F5180008F51800081C
:10009000F5180008F5180008F5180008F51800080C
:1000A000F5180008F5180008F5180008F5180008FC
:1000B0008D180008F518000800000000F518000869
:1000C000F51800080000000000000000F518000806
:1000D00000000000F5180008F518000800000000F6
:1000E000F5180008F5180008F518000800000000D1
:1000F0000000000000000000000000000000000000
:0C01000000000000000000005FF808F1A3
:1001100010B5054C237833B9044B13B10448AFF341
:1001200000800123237010BDA80000200000000003
:10013000203D000808B5034B1BB103490348AFF34A
:10014000008008BD00000000AC000020203D000839
:1001500081F0004102E000BF83F0004330B54FEA78
:1001600041044FEA430594EA050F08BF90EA020FE5
:100170001FBF54EA000C55EA020C7FEA645C7FEA78
:10018000655C00F0E2804FEA5454D4EB5555B8BF9B
:100190006D420CDD2C4480EA020281EA030382EA0C
:1001A000000083EA010180EA020281EA0303362D9E
:1001B00088BF30BD11F0004F4FEA01314FF4801C71
:1001C0004CEA113102D0404261EB410113F0004F83
:1001D0004FEA03334CEA133302D0524263EB43033A
:1001E00094EA050F00F0A780A4F10104D5F1200ED8
:1001F0000DDB02FA0EFC22FA05F2801841F1000133
:1002000003FA0EF2801843FA05F359410EE0A5F106
:1002100020050EF1200E012A03FA0EFC28BF4CF037
:10022000020C43FA05F3C01851EBE37101F00045ED
:1002300007D54FF0000EDCF1000C7EEB00006EEBFA
:100240000101B1F5801F1BD3B1F5001F0CD3490884
:100250005FEA30004FEA3C0C04F101044FEA4452DB
:1002600012F5800F80F09A80BCF1004F08BF5FEA62
:10027000500C50F1000041EB045141EA050130BD42
:100280005FEA4C0C404141EB0101013C28BFB1F554
:10029000801FE9D291F0000F04BF01460020B1FA9F
:1002A00081F308BF2033A3F10B03B3F120020CDA72
:1002B0000C3208DD02F1140CC2F10C0201FA0CF050
:1002C00021FA02F10CE002F11402D8BFC2F1200CB5
:1002D00001FA02F120FA0CFCDCBF41EA0C0190406B
:1002E000E41AA2BF01EB0451294330BD6FEA0404B4
:1002F0001F3C1CDA0C340EDC04F11404C4F120029F
:1003000020FA04F001FA02F340EA030021FA04F3B0
:1003100045EA030130BDC4F10C04C4F1200220FA07
:1003200002F001FA04F340EA0300294630BD21FA45
:1003300004F0294630BD94F0000F83F4801306BF0B
:1003400081F480110134013D4EE77FEA645C18BFFF
:100350007FEA655C29D094EA050F08BF90EA020F96
:1003600005D054EA000C04BF1946104630BD91EA8E
:10037000030F1EBF0021002030BD5FEA545C05D191
:100380004000494128BF41F0004130BD14F58004D0
:100390003CBF01F5801130BD01F0004545F0FE4144
:1003A00041F470014FF0000030BD7FEA645C1ABF79
:1003B000194610467FEA655C1CBF0B46024650EAB0
:1003C000013406BF52EA033591EA030F41F40021DC
:1003D00030BD00BF90F0000F04BF0021704730B562
:1003E0004FF4806404F132044FF000054FF0000137
:1003F00050E700BF90F0000F04BF0021704730B5F8
:100400004FF4806404F1320410F0004548BF4042CC
:100410004FF000013EE700BF42004FEAE2014FEA21
:1004200031014FEA02701FBF12F07F4393F07F4FFC
:1004300081F06051704732F07F4208BF704793F0FF
:100440007F4F04BF41F40021704730B54FF4607412
:1004500001F0004521F000411CE700BF50EA010215
:1004600008BF704730B54FF000050AE050EA0102BE
:1004700008BF704730B511F0004502D5404261EB2E
:1004800041014FF4806404F132045FEA915C3FF46F
:10049000D8AE4FF003025FEADC0C18BF03325FEA0C
:1004A000DC0C18BF033202EBDC02C2F1200300FABD
:1004B00003FC20FA02F001FA03FE40EA0E0021FAE2
:1004C00002F11444BDE600BF70B54FF0FF0C4CF4D0
:1004D000E06C1CEA11541DBF1CEA135594EA0C0F82
:1004E00095EA0C0F00F0DEF82C4481EA030621EABD
:1004F0004C5123EA4C5350EA013518BF52EA0335F8
:1005000041F4801143F4801338D0A0FB02CE4FF0A9
:100510000005E1FB02E506F00042E0FB03E54FF0D9
:100520000006E1FB03569CF0000F18BF4EF0010ED1
:10053000A4F1FF04B6F5007F64F5407404D25FEACD
:100540004E0E6D4146EB060642EAC62141EA555180
:100550004FEAC52040EA5E504FEACE2EB4F1FD0CC2
:1005600088BFBCF5E06F1ED8BEF1004F08BF5FEA40
:10057000500E50F1000041EB045170BD06F00046F2
:1005800046EA010140EA020081EA0301B4EB5C049F
:10059000C2BFD4EB0C0541EA045170BD41F4801197
:1005A0004FF0000E013C00F3AB8014F1360FDEBFBC
:1005B000002001F0004170BDC4F10004203C35DA98
:1005C0000C341BDC04F11404C4F1200500FA05F31B
:1005D00020FA04F001FA05F240EA020001F00042BC
:1005E00021F0004110EBD37021FA04F642EB060132
:1005F0005EEA430E08BF20EAD37070BDC4F10C045C
:10060000C4F1200500FA04F320FA05F001FA04F21F
:1006100040EA020001F0004110EBD37041F100010B
:100620005EEA430E08BF20EAD37070BDC4F1200516
:1006300000FA05F24EEA020E20FA04F301FA05F27E
:1006400043EA020321FA04F001F0004121FA04F226
:1006500020EA020000EBD3705EEA430E08BF20EAF6
:10066000D37070BD94F0000F0FD101F00046400030
:1006700041EB010111F4801F08BF013CF7D041EAB2
:10068000060195F0000F18BF704703F000465200B6
:1006900043EB030313F4801F08BF013DF7D043EA87
:1006A0000603704794EA0C0F0CEA135518BF95EA3D
:1006B0000C0F0CD050EA410618BF52EA4306D1D1C4
:1006C00081EA030101F000414FF0000070BD50EAE3
:1006D000410606BF1046194652EA430619D094EA6D
:1006E0000C0F02D150EA013613D195EA0C0F05D157
:1006F00052EA03361CBF104619460AD181EA0301AB
:1007000001F0004141F0FE4141F470014FF0000062
:1007100070BD41F0FE4141F4780170BD70B54FF0FD
:10072000FF0C4CF4E06C1CEA11541DBF1CEA13557D
:1007300094EA0C0F95EA0C0F00F0A7F8A4EB05045F
:1007400081EA030E52EA03354FEA013100F0888056
:100750004FEA03334FF0805545EA131343EA12631F
:100760004FEA022245EA111545EA10654FEA0026D4
:100770000EF000419D4208BF964244F1FD0404F58D
:10078000407402D25B084FEA3202B61A65EB0305E9
:100790005B084FEA32024FF480104FF4002CB6EBA6
:1007A000020E75EB030E22BFB61A754640EA0C0026
:1007B0005B084FEA3202B6EB020E75EB030E22BF66
:1007C000B61A754640EA5C005B084FEA3202B6EBA7
:1007D000020E75EB030E22BFB61A754640EA9C0066
:1007E0005B084FEA3202B6EB020E75EB030E22BF36
:1007F000B61A754640EADC0055EA060E18D04FEAF4
:10080000051545EA16754FEA06164FEAC30343EA93
:1008100052734FEAC2025FEA1C1CC0D111F4801F60
:100820000BD141EA00014FF000004FF0004CB6E759
:1008300011F4801F04BF01430020B4F1FD0C88BFF8
:10084000BCF5E06F3FF6AFAEB5EB030C04BFB6EB03
:10085000020C5FEA500C50F1000041EB045170BDF6
:100860000EF0004E4EEA113114EB5C04C2BFD4EB23
:100870000C0541EA045170BD41F480114FF0000EA7
:10088000013C90E645EA060E8DE60CEA135594EA23
:100890000C0F08BF95EA0C0F3FF43BAF94EA0C0F26
:1008A0000AD150EA01347FF434AF95EA0C0F7FF49B
:1008B00025AF104619462CE795EA0C0F06D152EAEF
:1008C00003353FF4FDAE1046194622E750EA4106D3
:1008D00018BF52EA43067FF4C5AE50EA41047FF4E4
:1008E0000DAF52EA43057FF4EBAE12E74FF0FF3C49
:1008F00006E000BF4FF0010C02E000BF4FF0010C1A
:100900004DF804CD4FEA410C7FEA6C5C4FEA430C92
:1009100018BF7FEA6C5C1BD001B050EA410C0CBFE1
:1009200052EA430C91EA030F02BF90EA020F002043
:10093000704710F1000F91EA030F58BF994208BFAA
:1009400090422CBFD8176FEAE37040F00100704767
:100950004FEA410C7FEA6C5C02D150EA013C07D1BE
:100960004FEA430C7FEA6C5CD6D152EA033CD3D009
:100970005DF8040B704700BF8446104662468C4603
:100980001946634600E000BF01B5FFF7B7FF002836
:1009900048BF10F1000F01BD4DF808EDFFF7F4FF5F
:1009A0000CBF012000205DF808FB00BF4DF808EDEA
:1009B000FFF7EAFF34BF012000205DF808FB00BF0D
:1009C0004DF808EDFFF7E0FF94BF012000205DF82F
:1009D00008FB00BF4DF808EDFFF7CEFF94BF0120E4
:1009E00000205DF808FB00BF4DF808EDFFF7C4FFDD
:1009F00034BF012000205DF808FB00BF4FEA410C26
:100A00007FEA6C5C02D150EA013C0AD14FEA430C08
:100A10007FEA6C5C02D152EA033C02D14FF0000045
:100A200070474FF0010070474FEA410212F5001283
:100A300015D211D56FF47873B3EB625212D94FEA25
:100A4000C12343F0004343EA505311F0004F23FA0F
:100A500002F018BF404270474FF00000704750EA64
:100A6000013005D111F0004008BF6FF00040704721
:100A70004FF00000704700BF80B582B000AF002388
:100A80007B607DE0434A7B6813441978424A7B6867
:100A900013440A461A70414A7B68134419783D4A48
:100AA0007B6813440A461A703D4A7B6832F813305B
:100AB00019463C4801F00CFA03461946374A7B6850
:100AC00013440A461A70354A7B6813441A78314930
:100AD0007B680B441B789A424FD1304A7B681344A1
:100AE0001A782D497B680B441B789A4245D12E4ACF
:100AF0007B6813441A7829497B680B441B789A4217
:100B000019D0264A7B6813441978274A7B68134416
:100B10000A461A70244A7B6813441B78002B2CD198
:100B2000224A7B68134401221A70214A7B6864219F
:100B300022F8131021E01C4A7B6813441B78002B19
:100B40001BD11B4A7B6832F913309BB2013B9BB22D
:100B500019B2174A7B6822F81310154A7B6832F9DC
:100B60001330002B09DC114A7B68134401221A70F0
:100B70000F4A7B68322122F813107B6801337B60B7
:100B80007B68032B7FF77EAF00BF00BF0837BD46F1
:100B900080BD00BFCC000020D0000020C800002095
:100BA00000000020000C0140C4000020D400002000
:100BB000D800002080B483B000AF78607B68002B41
:100BC00002DB7B68032B01DD00230DE0094A7B6813
:100BD00013441B78012B06D1064A7B68134400227C
:100BE0001A70012300E0002318460C37BD4680BC74
:100BF000704700BFD400002080B500AF00F07CFE3D
:100C000000F014F800F09AF800F04CF8064801F0F3
:100C1000BDFD00F0FFF900F025FB00F023FA00F025
:100C2000BDFB00BFF9E700BFE000002080B590B039
:100C300000AF07F1180328220021184602F032F90C
:100C40003B1D00221A605A609A60DA601A61022322
:100C5000BB610123BB621023FB6200237B6307F1AE
:100C60001803184601F064F90346002B01D000F088
:100C7000D3F80F237B600023BB600023FB600023BD
:100C80003B6100237B613B1D0021184601F0D2FB34
:100C90000346002B01D000F0BFF800BF4037BD462F
:100CA00080BD000080B586B000AF07F108030022C8
:100CB0001A605A609A60DA603B4600221A605A60F5
:100CC0001D4B4FF080421A601B4B41F63F725A6039
:100CD000194B00229A60184B0922DA60164B002249
:100CE0001A61154B00229A61134801F0FFFC03467C
:100CF000002B01D000F090F84FF48053BB6007F157
:100D0000080319460C4801F07DFE0346002B01D074
:100D100000F082F800233B6000237B603B461946CD
:100D2000054802F055F80346002B01D000F074F896
:100D300000BF1837BD4680BDE000002080B586B0FA
:100D400000AF07F1080300221A605A609A60DA6067
:100D5000284B9B69274A43F008039361254B9B6905
:100D600003F008037B607B68224B9B69214A43F0B8
:100D7000040393611F4B9B6903F004033B603B68D2
:100D8000002243F6F0711C4801F0B9F800224FF43C
:100D90007F411A4801F0B3F80F23BB600023FB60CA
:100DA00001233B6107F108031946134800F014FFC3
:100DB00043F6F073BB600123FB6001233B61022318
:100DC0007B6107F1080319460B4800F005FF4FF45B
:100DD0007F43BB600123FB6001233B6102237B61F6
:100DE00007F108031946054800F0F6FE00BF183762
:100DF000BD4680BD00100240000C014000080140CB
:100E000080B582B000AF786000F08AFCFFF734FE56
:100E100000BF0837BD4680BD80B400AF72B600BFCA
:100E200000BFFDE790B585B000AF786039607B68A2
:100E3000002BC0F2D7807B68012B00F3D3803B6886
:100E4000002BC0F2D1803B68012B00F3CD80694AB2
:100E50007B6852F823403B68C3F101031846FFF753
:100E6000C9FA02460B464FF00000634902F04CF805
:100E700002460B4610461946FFF7D6FD034694FB83
:100E8000F3F25E4B83FB02139910D317C91A0B467A
:100E90009B000B445B00D31AFB60FB68002B11DB4B
:100EA000FB68092B0EDC564AFB6832F81330554AB2
:100EB0001B021361544AFB6832F81330514A1B0677
:100EC000136109E04E4B9B8A4E4A1B0213614E4B45
:100ED0009B8A4C4A1B0613617B685A003B6813448B
:100EE000032B00F2838001A252F823F0FD0E0008CC
:100EF000370F0008710F0008AB0F0008434B1B8829
:100F000000221946424800F0FAFF404B5B8801225C
:100F100019463F4800F0F3FF3C4B9B8801221946DD
:100F20003B4800F0ECFF394BDB880122194638487A
:100F300000F0E5FF5BE0354B1B8801221946344881
:100F400000F0DDFF314B5B8800221946304800F08D
:100F5000D6FF2E4B9B88012219462D4800F0CFFF6B
:100F60002A4BDB8801221946294800F0C8FF3EE0E1
:100F7000264B1B8801221946254800F0C0FF234B51
:100F80005B8801221946224800F0B9FF1F4B9B885D
:100F9000002219461E4800F0B2FF1C4BDB880122DC
:100FA00019461B4800F0ABFF21E0184B1B880122BB
:100FB0001946174800F0A3FF144B5B88012219461D
:100FC000134800F09CFF114B9B88012219461048E2
:100FD00000F095FF0D4BDB88002219460C4800F00D
:100FE0008EFF04E000BF02E000BF00E000BF143746
:100FF000BD4690BD2801002000002440676666665B
:1010000028000020000801401000002008000020F7
:10101000000C014080B500AF0021192000F060FBFA
:101020000E4B1B88012219460D4800F068FF0B4B40
:101030005B88012219460A4800F061FF074B9B8834
:1010400001221946064800F05AFF044BDB880122B2
:101050001946034800F053FF00BF80BD0800002080
:10106000000C014080B500AF144B1B68144A126895
:1010700011461846FFF7D6FE124B1B78012B1BD1E9
:101080000021192000F02CFB0D4B1B6801330C4A8A
:1010900013600B4B1B68012B07DD094B00221A6004
:1010A000064B1B680133054A1360044B1B68012B78
:1010B00002DD024B00221A6000BF80BD300100201B
:1010C000340100204801002080B500AF094B052203
:1010D0001A60094B02221A60084B03221A60002191
:1010E000002000F00DF80121002000F009F800BFF9
:1010F00080BD00BF380100203C01002040010020DD
:1011000080B582B000AF03463960FB713B68002BAD
:10111000C0F298803B68012B00F39480FB79032B8D
:1011200000F2928001A252F823F000BF3D110008A6
:101130007F110008C111000803120008444A3B68EF
:1011400032F8133001221946424800F0D8FE424AD4
:101150003B6832F81330012219463E4800F0CFFEBA
:101160003E4A3B6832F8133001221946394800F0F4
:10117000C6FE3B4A3B68134400221A7065E0344ABD
:101180003B6832F8133000221946324800F0B7FEAF
:10119000314A3B6832F81330012219462D4800F0DD
:1011A000AEFE2E4A3B6832F8133001221946294818
:1011B00000F0A5FE2A4A3B68134401221A7044E05D
:1011C000234A3B6832F8133001221946214800F0C7
:1011D00096FE214A3B6832F81330002219461D481A
:1011E00000F08DFE1D4A3B6832F81330012219468B
:1011F000184800F084FE1A4A3B68134402221A7011
:1012000023E0134A3B6832F8133001221946114893
:1012100000F075FE104A3B6832F81330012219467F
:101220000C4800F06CFE0D4A3B6832F81330002287
:101230001946084800F063FE094A3B68134403223C
:101240001A7002E000BF00E000BF0837BD4680BD55
:1012500040000020000C0140440000204800002015
:101260004401002080B500AFFFF72EFF002000F002
:1012700003F800BF80BD000080B582B000AF034618
:10128000FB71FB79032B7AD801A252F823F000BF3F
:10129000A1120008F51200082313000851130008DA
:1012A0000121642000F01CFA374B1B68642202FB0A
:1012B00003F30221184600F013FA344B1B68642232
:1012C00002FB03F30321184600F00AFA2E4B1B68B9
:1012D0002F4A13602D4B1B682D4A536000210120BB
:1012E000FFF70EFF01210320FFF70AFF294B002221
:1012F0001A7045E00121192000F0F2F9244B022276
:101300001A60214B1B68224A536000210020FFF71E
:10131000F7FE01210020FFF7F3FE1E4B01221A7099
:101320002EE00121192000F0DBF9194B03221A608D
:10133000194B1B68164A536000210020FFF7E0FE9E
:1013400001210020FFF7DCFE124B02221A7017E089
:101350000121192000F0C4F90D4B04221A600B4B37
:101360001B680B4A536000210020FFF7C9FE0121D2
:101370000020FFF7C5FE074B03221A7000E000BFF4
:1013800000BF0837BD4680BD380100204001002065
:1013900028010020460100203C01002080B500AF5C
:1013A000A94B1B78032B00F28C8101A252F823F089
:1013B000C11300082F150008E9150008651600087C
:1013C000A24B5B78012B1BD10121642000F088F92E
:1013D0009F4B1B68013B9E4A13609D4B1B68002B73
:1013E00002DA9B4B00221A60994B5B68013B984ADA
:1013F0005360974B5B68002B02DA954B00225A60D2
:10140000924B9B78012B41D1924B1B78032B2AD016
:10141000032B3ADC012B02D0022B12D035E08E4B8D
:101420001B68642202FB03F30221184600F058F9FE
:10143000894B1B68864A136000210320FFF760FE7A
:1014400024E0864B1B68642202FB03F3022118464A
:1014500000F046F9814B1B687D4A13600021012092
:10146000FFF74EFE12E07E4B1B68642202FB03F383
:101470000221184600F034F9794B1B68744A136056
:1014800000210220FFF73CFE00E000BF6F4BDB783D
:10149000012B41D16F4B5B78032B2AD0032B3ADC15
:1014A000012B02D0022B12D035E06B4B1B6864225B
:1014B00002FB03F30321184600F012F9664B1B6888
:1014C000634A536001210320FFF71AFE24E0634BB7
:1014D0001B68642202FB03F30321184600F000F9A5
:1014E0005E4B1B685A4A536001210120FFF708FE3A
:1014F00012E05B4B1B68642202FB03F303211846D6
:1015000000F0EEF8564B1B68514A5360012102204F
:10151000FFF7F6FD00E000BF0020FFF74BFB03469E
:10152000002B00F0D0800120FFF7A6FECBE0474B58
:101530005B78012B20D1474B1B78002B02D0012B6D
:101540000DD019E00121192000F0CAF80021012076
:10155000FFF7D6FD01210120FFF7D2FD0CE00121AC
:10156000192000F0BDF800210020FFF7C9FD01217E
:101570000020FFF7C5FD00BF0020FFF71BFB03465F
:10158000002B02D00220FFF777FE0120FFF712FBAD
:101590000346002B0BD02E4B5B6801332C4A536063
:1015A0002B4B5B68632B02DD294B00225A60022023
:1015B000FFF700FB0346002B0BD0254B5B68013B7C
:1015C000234A5360224B5B68002B02DA204B6322D4
:1015D0005A600320FFF7EEFA0346002B75D01C4B30
:1015E0005B681E4A136070E0184B5B78012B20D1BA
:1015F000184B1B78002B02D0022B0DD019E00121D3
:10160000192000F06DF800210220FFF779FD01217B
:101610000220FFF775FD0CE00121192000F060F8B1
:1016200000210020FFF76CFD01210020FFF768FD7D
:1016300000BF0020FFF7BEFA0346002B47D003206F
:10164000FFF71AFE43E000BF4601002048010020DA
:101650002801002044010020400100203801002022
:101660003C0100201C4B5B78012B20D11B4B1B78CD
:10167000002B02D0032B0DD019E00121192000F01E
:101680002FF800210320FFF73BFD01210320FFF786
:1016900037FD0CE00121192000F022F80021002084
:1016A000FFF72EFD01210020FFF72AFD00BF0020DB
:1016B000FFF780FA0346002B0BD00020FFF7DCFD7C
:1016C00007E000BF06E000BF04E000BF02E000BF8B
:1016D00000E000BF00BF80BD4801002044010020A1
:1016E00080B483B000AF786039603B68002B0DDBBD
:1016F0003B68032B0ADC7B6819B2074A3B6822F877
:101700001310064A3B68134400221A7000BF0C37BE
:10171000BD4680BC704700BF4C010020480100203E
:1017200080B483B000AF00237B601FE0144A7B6865
:1017300032F91330002B16DD114A7B6832F9133071
:101740009BB2013B9BB219B20D4A7B6822F8131081
:101750000B4A7B6832F91330002B04DC094A7B68A2
:10176000134401221A707B6801337B607B68032B72
:10177000DCDD00BF00BF0C37BD4680BC704700BF3A
:101780004C0100204801002080B485B000AF154B0B
:101790009B69144A43F001039361124B9B6903F068
:1017A0000103BB60BB680F4BDB690E4A43F08053FB
:1017B000D3610C4BDB6903F080537B607B680A4B81
:1017C0005B68FB60FB6823F0E063FB60FB6843F051
:1017D0008063FB60044AFB68536000BF1437BD465A
:1017E00080BC7047001002400000014080B584B00A
:1017F00000AF78607B681B68B3F1804F13D10C4B4E
:10180000DB690B4A43F00103D361094BDB6903F049
:101810000103FB60FB68002200211C2000F0A5F9F9
:101820001C2000F0BEF900BF1037BD4680BD00BFD0
:101830000010024080B400AF00BFFDE780B400AFED
:1018400000BFFDE780B400AF00BFFDE780B400AF8C
:1018500000BFFDE780B400AF00BFFDE780B400AF7C
:1018600000BFBD4680BC704780B400AF00BFBD461E
:1018700080BC704780B400AF00BFBD4680BC7047DD
:1018800080B500AF00F07EF800BF80BD80B500AF2E
:10189000024800F0C7FF00BF80BD00BFE00000208D
:1018A00080B400AF00BFBD4680BC7047FFF7F8FFB3
:1018B0000B480C490C4A002302E0D458C4500433AE
:1018C000C4188C42F9D3094A094C002301E0136083
:1018D0000432A242FBD301F0F3FAFFF78DF970470F
:1018E00000000020A8000020A83D0008A80000205B
:1018F00090020020FEE7000080B500AF084B1B6897
:10190000074A43F010031360032000F023F90F206F
:1019100000F008F8FFF738FF0023184680BD00BF2D
:101920000020024080B582B000AF7860124B1A6888
:10193000124B1B7819464FF47A73B3FBF1F3B2FBE9
:10194000F3F3184600F03BF90346002B01D00123C6
:101950000EE07B680F2B0AD8002279684FF0FF3029
:1019600000F003F9064A7B681360002300E00123BE
:1019700018460837BD4680BD4C00002054000020AA
:101980005000002080B400AF054B1B781A46054B71
:101990001B681344034A136000BFBD4680BC7047F8
:1019A000540000205401002080B400AF024B1B689B
:1019B0001846BD4680BC70475401002080B485B0F5
:1019C00000AF78607B6803F00703FB600C4BDB68BB
:1019D000BB60BA684FF6FF031340BB60FB681A0296
:1019E000BB68134343F0BF6343F40033BB60044A56
:1019F000BB68D36000BF1437BD4680BC704700BFD2
:101A000000ED00E080B400AF044BDB681B0A03F07C
:101A100007031846BD4680BC704700BF00ED00E0DC
:101A200080B483B000AF0346FB7197F90730002BF9
:101A30000BDBFB7903F01F02064997F907305B09BE
:101A4000012000FA02F241F8232000BF0C37BD4606
:101A500080BC704700E100E080B483B000AF034673
:101A60003960FB7197F90730002B0ADB3B68DAB26B
:101A70000C4997F907301201D2B20B4483F80023C6
:101A80000AE03B68DAB20849FB7903F00F03043B34
:101A90001201D2B20B441A7600BF0C37BD4680BC8F
:101AA000704700BF00E100E000ED00E080B489B0C5
:101AB00000AFF860B9607A60FB6803F00703FB6170
:101AC000FB69C3F10703042B28BF0423BB61FB6937
:101AD0000433062B02D9FB69033B00E000237B6142
:101AE0004FF0FF32BB6902FA03F3DA43BB681A40D6
:101AF0007B699A404FF0FF317B6901FA03F3D943C8
:101B00007B680B40134318462437BD4680BC7047A2
:101B100080B582B000AF78607B68013BB3F1807F15
:101B200001D301230FE00A4A7B68013B53600F2178
:101B30004FF0FF30FFF790FF054B00229A60044BF7
:101B400007221A60002318460837BD4680BD00BF33
:101B500010E000E080B582B000AF78607868FFF7F1
:101B60002DFF00BF0837BD4680BD80B586B000AFF1
:101B70000346B9607A60FB7300237B61FFF742FF85
:101B800078617A68B9687869FFF790FF024697F93B
:101B90000F3011461846FFF75FFF00BF1837BD46EC
:101BA00080BD80B582B000AF0346FB7197F9073066
:101BB0001846FFF735FF00BF0837BD4680BD80B52A
:101BC00082B000AF78607868FFF7A2FF034618463E
:101BD0000837BD4680BD000080B48BB000AF786090
:101BE000396000237B6200233B6261E101227B6A52
:101BF00002FA03F3FB613B681B68FA691340BB619F
:101C0000BA69FB699A4240F050813B685B68974A29
:101C100093425ED0954A934275D8954A934258D0E4
:101C2000934A93426FD8934A934252D0914A934237
:101C300069D8914A93424CD08F4A934263D88F4AD5
:101C4000934246D08D4A93425DD8122B2AD8122B4C
:101C500059D801A252F823F0D31C0008AD1C00088B
:101C6000BF1C0008011D0008071D0008071D000813
:101C7000071D0008071D0008071D0008071D0008B4
:101C8000071D0008071D0008071D0008071D0008A4
:101C9000071D0008071D0008071D0008B51C0008E7
:101CA000C91C0008764A934213D02CE03B68DB68DD
:101CB0003B6229E03B68DB6804333B6224E03B681D
:101CC000DB6808333B621FE03B68DB680C333B6238
:101CD0001AE03B689B68002B02D104233B6213E0AF
:101CE0003B689B68012B05D108233B627B68FA693E
:101CF0001A6109E008233B627B68FA695A6103E0D4
:101D000000233B6200E000BFBB69FF2B01D87B686A
:101D100001E07B6804337B61BB69FF2B02D87B6ADF
:101D20009B0002E07B6A083B9B003B617B691A6871
:101D30000F213B6901FA03F3DB431A40396A3B691F
:101D400001FA03F31A437B691A603B685B6803F08E
:101D50008053002B00F0A9804A4B9B69494A43F00D
:101D600001039361474B9B6903F00103BB60BB68B0
:101D7000454A7B6A9B08023352F82330FB607B6A3A
:101D800003F003039B000F2202FA03F3DB43FA681C
:101D90001340FB607B683D4A93420DD07B683C4A10
:101DA000934207D07B683B4A934201D1022304E06F
:101DB000032302E0012300E000237A6A02F0030219
:101DC00092009340FA681343FB602F497B6A9B089B
:101DD0000233FA6841F823203B685B6803F4801300
:101DE000002B06D02C4B9A682B49BB6913438B60A0
:101DF00006E0294B9A68BB69DB43274913408B6097
:101E00003B685B6803F40013002B06D0224BDA68B2
:101E10002149BB691343CB6006E01F4BDA68BB69FD
:101E2000DB431D491340CB603B685B6803F4003320
:101E3000002B06D0184B5A681749BB6913434B60F7
:101E400006E0154B5A68BB69DB43134913404B60EE
:101E50003B685B6803F48033002B1FD00E4B1A687D
:101E60000D49BB6913430B601FE000BF0000321037
:101E7000000031100000221000002110000012109C
:101E80000000111000100240000001400008014055
:101E9000000C014000100140000401400B4B1A6887
:101EA000BB69DB43094913400B607B6A01337B62EA
:101EB0003B681A687B6A22FA03F3002B7FF496AE24
:101EC00000BF00BF2C37BD4680BC704700040140F6
:101ED00080B485B000AF78600B467B807B689A68E1
:101EE0007B881340002B02D00123FB7301E0002309
:101EF000FB73FB7B18461437BD4680BC704780B42B
:101F000083B000AF78600B467B8013467B707B7894
:101F1000002B03D07A887B681A6103E07B881A045F
:101F20007B681A6100BF0C37BD4680BC704700005B
:101F300080B586B000AF78607B68002B01D10123AB
:101F400072E27B681B6803F00103002B00F08780BE
:101F5000924B5B6803F00C03042B0CD08F4B5B6837
:101F600003F00C03082B12D18C4B5B6803F4803315
:101F7000B3F5803F0BD1894B1B6803F40033002B72
:101F80006CD07B685B68002B68D101234CE27B68D6
:101F90005B68B3F5803F06D1804B1B687F4A43F4F2
:101FA000803313602EE07B685B68002B0CD17B4B89
:101FB0001B687A4A23F480331360784B1B68774A96
:101FC00023F4802313601DE07B685B68B3F5A02FCA
:101FD0000CD1724B1B68714A43F4802313606F4B22
:101FE0001B686E4A43F4803313600BE06B4B1B6835
:101FF0006A4A23F480331360684B1B68674A23F4F2
:10200000802313607B685B68002B13D0FFF7CCFC48
:10201000386108E0FFF7C8FC02463B69D31A642B1D
:1020200001D9032300E25D4B1B6803F40033002B4E
:10203000F0D014E0FFF7B8FC386108E0FFF7B4FC1B
:1020400002463B69D31A642B01D90323ECE1534BBD
:102050001B6803F40033002BF0D100E000BF7B6865
:102060001B6803F00203002B63D04C4B5B6803F04A
:102070000C03002B0BD0494B5B6803F00C03082BBF
:102080001CD1464B5B6803F48033002B16D1434BC5
:102090001B6803F00203002B05D07B681B69012B32
:1020A00001D00123C0E13D4B1B6823F0F8027B689F
:1020B0005B69DB00394913430B603AE07B681B69BD
:1020C000002B20D0364B01221A60FFF76DFC3861DF
:1020D00008E0FFF769FC02463B69D31A022B01D9DD
:1020E0000323A1E12D4B1B6803F00203002BF0D06A
:1020F0002A4B1B6823F0F8027B685B69DB002749E9
:1021000013430B6015E0264B00221A60FFF74CFCCE
:10211000386108E0FFF748FC02463B69D31A022BFE
:1021200001D9032380E11D4B1B6803F00203002B40
:10213000F0D17B681B6803F00803002B3AD07B6862
:102140009B69002B19D0174B01221A60FFF72CFC5A
:10215000386108E0FFF728FC02463B69D31A022BDE
:1021600001D9032360E10D4B5B6A03F00203002BEE
:10217000F0D0012000F09CFA1CE00A4B00221A600B
:10218000FFF712FC38610FE0FFF70EFC02463B69D7
:10219000D31A022B08D9032346E100BF00100240E6
:1021A0000000424280044242924B5B6A03F0020309
:1021B000002BE9D17B681B6803F00403002B00F0BF
:1021C000A6800023FB758B4BDB6903F08053002B4B
:1021D0000DD1884BDB69874A43F08053D361854B2F
:1021E000DB6903F08053BB60BB680123FB75824B46
:1021F0001B6803F48073002B18D17F4B1B687E4A49
:1022000043F480731360FFF7CFFB386108E0FFF7FA
:10221000CBFB02463B69D31A642B01D9032303E1AC
:10222000754B1B6803F48073002BF0D07B68DB6870
:10223000012B06D16F4B1B6A6E4A43F001031362F8
:102240002DE07B68DB68002B0CD16A4B1B6A694A66
:1022500023F001031362674B1B6A664A23F00403F1
:1022600013621CE07B68DB68052B0CD1614B1B6A99
:10227000604A43F0040313625E4B1B6A5D4A43F0FD
:10228000010313620BE05B4B1B6A5A4A23F0010304
:102290001362584B1B6A574A23F0040313627B688E
:1022A000DB68002B15D0FFF77FFB38610AE0FFF7F2
:1022B0007BFB02463B69D31A41F28832934201D933
:1022C0000323B1E04B4B1B6A03F00203002BEED05B
:1022D00014E0FFF769FB38610AE0FFF765FB02468F
:1022E0003B69D31A41F28832934201D903239BE020
:1022F000404B1B6A03F00203002BEED1FB7D012B48
:1023000005D13C4BDB693B4A23F08053D3617B68AA
:10231000DB69002B00F08780364B5B6803F00C0311
:10232000082B61D07B68DB69022B46D1334B00223E
:102330001A60FFF739FB386108E0FFF735FB02460A
:102340003B69D31A022B01D903236DE0294B1B688B
:1023500003F00073002BF0D17B681B6AB3F5803F5C
:1023600008D1244B5B6823F400327B689B682149C9
:1023700013434B601F4B5B6823F474127B68196A2C
:102380007B685B6A0B431B4913434B601B4B012269
:102390001A60FFF709FB386108E0FFF705FB02460A
:1023A0003B69D31A022B01D903233DE0114B1B6873
:1023B00003F00073002BF0D035E0104B00221A60C0
:1023C000FFF7F2FA386108E0FFF7EEFA02463B69E0
:1023D000D31A022B01D9032326E0064B1B6803F016
:1023E0000073002BF0D11EE07B68DB69012B07D165
:1023F000012319E0001002400070004060004242DA
:102400000B4B5B68FB60FB6803F480327B681B6AE4
:102410009A4206D1FB6803F470127B685B6A9A42A9
:1024200001D0012300E0002318461837BD4680BDC7
:102430000010024080B584B000AF786039607B68DE
:10244000002B01D10123D0E06A4B1B6803F0070386
:102450003A689A4210D9674B1B6823F00702654916
:102460003B6813430B60634B1B6803F007033A6838
:102470009A4201D00123B8E07B681B6803F0020395
:10248000002B20D07B681B6803F00403002B05D0D1
:10249000594B5B68584A43F4E06353607B681B68A0
:1024A00003F00803002B05D0534B5B68524A43F4FA
:1024B00060535360504B5B6823F0F0027B689B686D
:1024C0004D4913434B607B681B6803F00103002BED
:1024D00040D07B685B68012B07D1474B1B6803F436
:1024E0000033002B15D101237FE07B685B68022B52
:1024F00007D1414B1B6803F00073002B09D1012366
:1025000073E03D4B1B6803F00203002B01D1012354
:102510006BE0394B5B6823F003027B685B683649EC
:1025200013434B60FFF740FAF8600AE0FFF73CFA0C
:102530000246FB68D31A41F28832934201D9032341
:1025400053E02D4B5B6803F00C027B685B689B00DB
:102550009A42EBD1274B1B6803F007033A689A4273
:1025600010D2244B1B6823F0070222493B68134317
:102570000B60204B1B6803F007033A689A4201D0B6
:10258000012332E07B681B6803F00403002B08D0B2
:10259000194B5B6823F4E0627B68DB6816491343E0
:1025A0004B607B681B6803F00803002B09D0124BBB
:1025B0005B6823F460527B681B69DB000E491343A0
:1025C0004B6000F021F802460B4B5B681B0903F0DF
:1025D0000F030A49CB5C22FA03F3094A1360094B43
:1025E0001B681846FFF79EF9002318461037BD46B2
:1025F00080BD00BF0020024000100240383D0008AE
:102600004C0000205000002080B487B000AF0023B1
:10261000FB600023BB6000237B6100237B60002301
:102620003B611E4B5B68FB60FB6803F00C03042BF3
:1026300002D0082B03D027E0194B3B6127E0FB6851
:102640009B0C03F00F03174AD35C7B60FB6803F419
:102650008033002B10D0114B5B685B0C03F001033F
:10266000114AD35CBB607B680D4A03FB02F2BB6876
:10267000B2FBF3F37B6104E07B680C4A02FB03F3DB
:102680007B617B693B6102E0054B3B6100BF3B69BD
:1026900018461C37BD4680BC704700BF0010024082
:1026A00000127A00483D0008583D000800093D002E
:1026B00080B485B000AF78600A4B1B680A4AA2FB61
:1026C00003235B0A7A6802FB03F3FB6000BFFB682D
:1026D0005A1EFA60002BF9D100BF00BF1437BD4667
:1026E00080BC70474C000020D34D621080B582B092
:1026F00000AF78607B68002B01D1012341E07B684B
:1027000093F83D30DBB2002B06D17B68002283F8C2
:102710003C207868FFF76AF87B68022283F83D2046
:102720007B681A687B6804331946104600F056FA35
:102730007B68012283F846207B68012283F83E20D3
:102740007B68012283F83F207B68012283F84020C8
:102750007B68012283F841207B68012283F84220B4
:102760007B68012283F843207B68012283F84420A0
:102770007B68012283F845207B68012283F83D2095
:10278000002318460837BD4680BD000080B485B0E0
:1027900000AF78607B6893F83D30DBB2012B01D04D
:1027A000012335E07B68022283F83D207B681B68AB
:1027B000DA687B681B6842F00102DA607B681B689C
:1027C000164A934209D07B681B68B3F1804F04D04E
:1027D0007B681B68124A934211D17B681B689B6817
:1027E00003F00703FB60FB68062B10D07B681B68B7
:1027F0001A687B681B6842F001021A6007E07B6878
:102800001B681A687B681B6842F001021A6000238B
:1028100018461437BD4680BC704700BF002C0140ED
:102820000004004080B584B000AF78607B681B680E
:10283000DB68FB607B681B681B69BB60BB6803F0DF
:102840000203002B20D0FB6803F00203002B1BD0F7
:102850007B681B686FF002021A617B6801221A779D
:102860007B681B689B6903F00303002B03D0786827
:1028700000F098F905E0786800F08BF9786800F0CE
:102880009AF97B6800221A77BB6803F00403002BD7
:1028900020D0FB6803F00403002B1BD07B681B686F
:1028A0006FF004021A617B6802221A777B681B684A
:1028B0009B6903F44073002B03D0786800F072F931
:1028C00005E0786800F065F9786800F074F97B68D5
:1028D00000221A77BB6803F00803002B20D0FB68A6
:1028E00003F00803002B1BD07B681B686FF0080205
:1028F0001A617B6804221A777B681B68DB6903F026
:102900000303002B03D0786800F04CF905E07868E9
:1029100000F03FF9786800F04EF97B6800221A77E2
:10292000BB6803F01003002B20D0FB6803F01003FA
:10293000002B1BD07B681B686FF010021A617B684C
:1029400008221A777B681B68DB6903F44073002B4D
:1029500003D0786800F026F905E0786800F019F9EE
:10296000786800F028F97B6800221A77BB6803F0CA
:102970000103002B0CD0FB6803F00103002B07D0F0
:102980007B681B686FF001021A617868FEF738FAFD
:10299000BB6803F08003002B0CD0FB6803F08003BE
:1029A000002B07D07B681B686FF080021A61786883
:1029B00000F06FFABB6803F04003002B0CD0FB68FB
:1029C00003F04003002B07D07B681B686FF04002C8
:1029D0001A61786800F0F8F8BB6803F02003002B58
:1029E0000CD0FB6803F02003002B07D07B681B682A
:1029F0006FF020021A61786800F042FA00BF1037C9
:102A0000BD4680BD80B584B000AF786039600023DA
:102A1000FB737B6893F83C30012B01D10223B4E0B7
:102A20007B68012283F83C207B68022283F83D20EA
:102A30007B681B689B68BB60BB6823F07703BB6047
:102A4000BB6823F47F43BB607B681B68BA689A60ED
:102A50003B681B68B3F5005F3ED0B3F5005F00F242
:102A60008780B3F5805F00F08680B3F5805F7FD804
:102A7000702B1AD0702B7BD8602B50D0602B77D85E
:102A8000502B3CD0502B73D8402B58D0402B6FD8B4
:102A9000302B64D0302B6BD8202B60D0202B67D804
:102AA000002B5CD0102B5AD062E07B6818683B6822
:102AB00099683B685A683B68DB6800F06AF97B6894
:102AC0001B689B68BB60BB6843F07703BB607B6897
:102AD0001B68BA689A604FE07B6818683B68996821
:102AE0003B685A683B68DB6800F053F97B681B68F9
:102AF0009A687B681B6842F480429A603CE07B687D
:102B000018683B6859683B68DB681A4600F0CAF8E9
:102B10007B681B685021184600F021F92CE07B6887
:102B200018683B6859683B68DB681A4600F0E8F8AB
:102B30007B681B686021184600F011F91CE07B6877
:102B400018683B6859683B68DB681A4600F0AAF8C9
:102B50007B681B684021184600F001F90CE07B6897
:102B60001A683B681B681946104600F0F8F803E045
:102B70000123FB7300E000BF7B68012283F83D2046
:102B80007B68002283F83C20FB7B18461037BD464B
:102B900080BD80B483B000AF786000BF0C37BD4605
:102BA00080BC704780B483B000AF786000BF0C3742
:102BB000BD4680BC704780B483B000AF786000BF72
:102BC0000C37BD4680BC704780B483B000AF7860DE
:102BD00000BF0C37BD4680BC7047000080B485B094
:102BE00000AF786039607B681B68FB607B682B4AAC
:102BF000934207D07B68B3F1804F03D07B68284AAB
:102C0000934208D1FB6823F07003FB603B685B686C
:102C1000FA681343FB607B68204A934207D07B68C5
:102C2000B3F1804F03D07B681D4A934208D1FB6803
:102C300023F44073FB603B68DB68FA681343FB6076
:102C4000FB6823F080023B685B691343FB607B6891
:102C5000FA681A603B689A687B68DA623B681A68AF
:102C60007B689A627B680D4A934203D13B681A697C
:102C70007B681A637B6801225A617B681B6903F0D9
:102C80000103002B05D07B681B6923F001027B68E0
:102C90001A6100BF1437BD4680BC7047002C01404C
:102CA0000004004080B487B000AFF860B9607A607B
:102CB000FB681B6A7B61FB681B6A23F00102FB68EF
:102CC0001A62FB689B693B613B6923F0F0033B613F
:102CD0007B681B013A6913433B617B6923F00A035C
:102CE0007B617A69BB6813437B61FB683A699A61CF
:102CF000FB687A691A6200BF1C37BD4680BC70470A
:102D000080B487B000AFF860B9607A60FB681B6A76
:102D10007B61FB681B6A23F01002FB681A62FB6888
:102D20009B693B613B6923F470433B617B681B03F8
:102D30003A6913433B617B6923F0A0037B61BB6865
:102D40001B017A6913437B61FB683A699A61FB68EE
:102D50007A691A6200BF1C37BD4680BC704780B4D8
:102D600085B000AF786039607B689B68FB60FB686A
:102D700023F07003FB603A68FB68134343F00703DA
:102D8000FB607B68FA689A6000BF1437BD4680BC60
:102D9000704780B487B000AFF860B9607A603B607C
:102DA000FB689B687B617B6923F47F437B613B68A5
:102DB0001A027B681A43BB6813437A6913437B6129
:102DC000FB687A699A6000BF1C37BD4680BC7047BB
:102DD00080B485B000AF786039607B6893F83C3090
:102DE000012B01D1022341E07B68012283F83C20C2
:102DF0007B68022283F83D207B681B685B68FB6070
:102E00007B681B689B68BB60FB6823F07003FB60FA
:102E10003B681B68FA681343FB607B681B68FA68B1
:102E20005A607B681B68144A934209D07B681B6810
:102E3000B3F1804F04D07B681B68104A93420CD1D9
:102E4000BB6823F08003BB603B685B68BA681343D0
:102E5000BB607B681B68BA689A607B68012283F854
:102E60003D207B68002283F83C200023184614375D
:102E7000BD4680BC704700BF002C014000040040EC
:102E800080B483B000AF786000BF0C37BD4680BC13
:102E9000704780B483B000AF786000BF0C37BD4688
:102EA00080BC704703460244934200D1704703F848
:102EB000011BF9E7014B1868704700BF580000205C
:102EC00070B500260C4D0D4C641BA410A64209D110
:102ED00000F026FF00260A4D0A4C641BA410A642EF
:102EE00005D170BD55F8043B98470136EEE755F81B
:102EF000043B98470136F2E7A03D0008A03D0008DA
:102F0000A03D0008A43D00082DE9F84314461D46E5
:102F10008046894600F068F8224606460F462B4652
:102F200020462946FDF76AFDC8BB00220023404623
:102F30004946FDF731FDB8B100220023204629465D
:102F4000FDF72AFD002841D12046294600F044F82B
:102F500028B30022002320462946FDF727FDF0B1C3
:102F6000FFF7A8FF222319E03046394600F034F875
:102F7000C8B94046494600F02FF8A0B1204629467E
:102F800000F02AF878B132463B4630463946FDF724
:102F900035FD0028E4D0FFF78DFF21230360304684
:102FA0003946BDE8F8830022002330463946FDF754
:102FB000F3FC0028F3D04046494600F00DF8002805
:102FC000EDD02046294600F007F8C8E70026014F5B
:102FD000E5E700BF0000F03F41F0004000F5801041
:102FE000C00F7047000000002DE9F04F91B0CDE90F
:102FF00000238B46DDE9001828F00047824657EA97
:10300000010012D153468BF40022DB185241984242
:10301000934B934180F0CD84DDE90023504659461F
:10302000FDF79CF811B0BDE8F08F8E4B2BF00045FA
:103030009D425E46D1460BD805D1BAF1000FEBD1C7
:10304000AF42E9D801E09F4202D89F420FD171B14F
:1030500006F1404606F5801656EA0906DCD1DDE9A0
:103060000032DB1882F4002252419E42D0E7002E4B
:103070002B4642DA7C4A974256D8A2F154729742C4
:1030800040F2A6843A15A2F2FF32142A18DDC2F1EA
:10309000340221FA02F404FA02F28A4240F09884DF
:1030A00004F00104C4F10204002959D1B8F1804FA1
:1030B00049D152465B4650465946FDF705FAB1E7FD
:1030C00000294CD1C2F1140247FA02F404FA02F2C8
:1030D000BA4240F07A8404F00104C4F10204634A65
:1030E0009742E3D1B8F1000F80F26B8452465B4601
:1030F00000205E49FDF712FB94E7002481BB594A8A
:103100009742ECD105F1404303F5801353EA0903DC
:1031100000F04F84564B9D4208D9B8F1000F80F261
:103120004C84002000217DE70224E7E7B8F1000F7E
:103130004FF000004FF00001BFF674AFDDE900036F
:1031400003F100416EE74B4A904509D1002E07DBA1
:103150005046594611B0BDE8F04F00F00FBD0024B5
:1031600050465946029300F090FC029BB9F1000FC3
:1031700027D13E4A26F0404C944500D00DBBB8F113
:10318000000F05DA02460B4600203849FDF7C6FA63
:10319000002EBFF647AF05F1404505F580152543E4
:1031A00008D102460B4610461946FCF7D5FF0246E9
:1031B0000B469FE7012C7FF435AF01F10043194620
:1031C00030E7F20F013A52EA040C02D152465B4654
:1031D000E9E74FF00009013C144314BFDFF88CA06D
:1031E000DFF894A0B7F1844FCDE9029A40F2048150
:1031F000224B9F421E4B13D99D4208D8B8F1000FB5
:1032000008DA002011B0BDE8F04F00F039BCB8F189
:10321000000FF6DC002011B0BDE8F04F00F02BBC31
:103220009D420CD2DDE9020100220023FDF7BEFB26
:10323000003818BF0120B8F1000FECDAE2E70B4BC1
:1032400000229D421CD9DDE902010023FDF7AEFBFF
:10325000003818BF0120B8F1000FD3DCDBE700BF56
:103260000000F0FF0000F07FFFFF3F430000F03F51
:10327000FFFFEF3F0000E03F0000F0BF0000F04321
:10328000594BFCF769FF50A3D3E9002304460D46D0
:10329000FDF71AF94EA3D3E9002306460F46204650
:1032A0002946FDF711F9002282468B462046294621
:1032B0004E4BFDF709F902460B4647A1D1E9000143
:1032C000FCF74AFF22462B46FDF7FEF802460B4666
:1032D00000204749FCF740FF2246804689462B469E
:1032E00020462946FDF7F0F802460B46404649467F
:1032F000FDF7EAF83AA3D3E90023FDF7E5F8024623
:103300000B4650465946FCF727FF002402460B4661
:103310008046894630463946FCF720FF32463B4618
:1033200020460D46FCF718FF02460B46404649462C
:10333000FCF712FFDDE90023CDE904230023049309
:10334000DDE904AB06460F46DDE900015B46524667
:10335000FCF702FF22462B46FDF7B6F8DDE9002315
:103360008046894630463946FDF7AEF802460B46A0
:1033700040464946FCF7F2FE5B4606460F4652467B
:1033800020462946FDF7A0F80B46024680468946AE
:1033900030463946FCF7E2FE164B044699420D468C
:1033A0008B4640F3FD8101F13F4303F5E003034306
:1033B00000F0DC81DDE9020100220023FDF7F6FACE
:1033C000003818BF01201DE7000000604715F73FD7
:1033D00044DF5DF80BAE543E555555555555D53F18
:1033E000FE822B654715F73F0000F03F0000D03FFD
:1033F0000000E03FFFFF8F40D34A3240002A40F0F8
:103400007A81D24B0022FDF75FF86FF034040B464F
:103410001A15A2F2FF3222440A92CD4AC3F31303D3
:1034200043F07F55934245F4401508DDC94A934265
:1034300040F363810A9BA5F5801501330A930026AA
:10344000F3000B93C44B294603EBC603D3E90034C6
:103450001A46CDE9083423468246FCF77DFE5246E3
:103460002B46CDE90C01DDE90801FCF777FE0246A9
:103470000B460020B949FDF751F902460B46CDE94C
:103480000E01DDE90C01FDF71FF8CDE90601DDE9CC
:103490000634CDE9043400230022AB466D1045F01C
:1034A0000055049305F50025DDE9048905EB864305
:1034B0004046494614461D46FDF706F802460B46AF
:1034C000DDE90C01FCF748FEDDE9082306460F465E
:1034D00020462946FCF740FE02460B465046594618
:1034E000FCF73AFE42464B46FCF7EEFF02460B461F
:1034F00030463946FCF730FEDDE90E23FCF7E4FFE9
:10350000DDE90623CDE9080110461946FCF7DCFF8A
:103510007BA3D3E9002304460D46FCF7D5FF7AA32D
:10352000D3E90023FCF71AFE22462B46FCF7CCFF1A
:1035300077A3D3E90023FCF711FE22462B46FCF7C4
:10354000C3FF75A3D3E90023FCF708FE22462B46F0
:10355000FCF7BAFF72A3D3E90023FCF7FFFD224674
:103560002B46FCF7B1FF70A3D3E90023FCF7F6FD6F
:10357000224606460F462B4620462946FCF7A4FF66
:1035800002460B4630463946FCF79EFF04460D4680
:10359000DDE9060142464B46FCF7E0FDDDE9082384
:1035A000FCF792FF22462B46FCF7D8FD42468246A6
:1035B0008B464B4640464946FCF786FF0022684B47
:1035C00006460F46FCF7CAFD52465B46FCF7C6FDB1
:1035D00000240D4622460B4640464946FCF774FF40
:1035E000002280468946204629465D4BFCF7B4FD03
:1035F00032463B46FCF7B0FD02460B465046594664
:10360000FCF7AAFDDDE90623FCF75EFF224606462D
:103610000F46DDE908012B46FCF756FF02460B4634
:1036200030463946FCF79AFD002406460F4602460E
:103630000B4640464946FCF791FD3DA3D3E90023E4
:1036400020460D46FCF740FF42464B46CDE90601B9
:1036500020462946FCF780FD02460B463046394697
:10366000FCF77AFD34A3D3E90023FCF72DFF34A344
:10367000D3E9002306460F4620462946FCF724FFDF
:1036800002460B4630463946FCF768FD0B9A354B2F
:1036900000241344D3E90023FCF760FD82460A9816
:1036A0008B46FCF7A7FE06460F460B9A2E4B13449B
:1036B000D3E900895246DDE906015B46FCF74EFD81
:1036C00042464B46FCF74AFD32463B46FCF746FD78
:1036D00032463B4620460D46FCF73EFD42464B46F1
:1036E000FCF73AFDDDE90623FCF736FD02460B4602
:1036F000504659461CE600248AE60126A0E600BF93
:10370000EF4E454A287ECA3F65DBC9934A86CD3FC6
:1037100001411DA96074D13F4D268F515555D53FAC
:10372000FFAB6FDBB66DDB3F033333333333E33F44
:10373000000000E009C7EE3FFD033ADC09C7EE3F99
:10374000F5015B14E02F3EBE0000F07F0000404317
:103750008E98030079B60B00803D00080000F03F12
:1037600000000840603D0008703D00089AA3D3E9BE
:10377000002330463946FCF7F1FC4246CDE9000112
:103780004B4620462946FCF7E7FC02460B46DDE99E
:103790000001FDF729F900287FF40CAEA04B22E0D0
:1037A000A04C21F00043A34219D99F4B0B44034383
:1037B00009D0DDE9020100220023FDF7F7F8003807
:1037C00018BF012027E542464B46FCF7C5FC3246B0
:1037D0003B46FDF7FFF80028EBD1944B03E0944AF9
:1037E000934240F2E1804FF4801A1B15A3F2FE339E
:1037F0004AFA03FADA44CAF30A518E48A1F2FF31B9
:10380000084100EA0A03CAF3130AC1F114014AF499
:10381000801A40464AFA01FABBF1000F49464FF0C0
:103820000002B8BFCAF1000AFCF796FC8046894640
:10383000002432463B4640464946FCF78FFC68A3CD
:10384000D3E9002320460D46FCF73EFE42464B4698
:10385000CDE9000120462946FCF77EFC02460B46D6
:1038600030463946FCF778FC5FA3D3E90023FCF728
:103870002BFE5FA3D3E900238046894620462946D4
:10388000FCF722FE02460B4640464946FCF766FC22
:1038900004460D4602460B46DDE90001FCF75EFCDE
:1038A000DDE9002380468946FCF756FC02460B46BC
:1038B00020462946FCF750FC424606460F464B463A
:1038C00040464946FCF700FE4BA3D3E900230446DB
:1038D0000D46FCF7F9FD4AA3D3E90023FCF73CFCB5
:1038E00022462B46FCF7F0FD47A3D3E90023FCF763
:1038F00035FC22462B46FCF7E7FD45A3D3E9002320
:10390000FCF72AFC22462B46FCF7DEFD42A3D3E956
:103910000023FCF723FC22462B46FCF7D5FD02468C
:103920000B4640464946FCF717FC04460D46024646
:103930000B4640464946FCF7C7FD0022CDE9000191
:103940004FF0804320462946FCF706FC02460B4612
:10395000DDE90001FCF7E2FE324604460D463B4637
:1039600040464946FCF7B0FD32463B46FCF7F6FBC5
:1039700002460B4620462946FCF7EEFB42464B46E4
:10398000FCF7EAFB02460B4600202B49FCF7E4FB60
:1039900001EB0A54B4F5801F09DA524600F07CF8B6
:1039A000DDE90223FFF789BBDDF810A040E72146DF
:1039B000F6E700202049FFF735BBDDE90001FFF7FE
:1039C00031BB50465946FFF72DBB0C46FFF787BB6E
:1039D0000024FFF769BB00BFFE822B654715973CAB
:1039E00000000000432EE63FEF39FAFE422EE63F8C
:1039F000396CA80C615C20BED0A4BE726937663EEB
:103A0000F16BD2C541BDBB3E2CDE25AF6A56113FDE
:103A100093BDBE166CC1663F3E5555555555C53FC5
:103A200000009040FFCB904000346F3F00CC9040AE
:103A30000000E03F0000F0FF0000F03F70B50446DA
:103A40000D461646FFF736FA29460660204670BD39
:103A500013B50446194610460CB103F10043CDE9F5
:103A60000023DDE90023FCF72FFD222202B0BDE890
:103A70001040FFF7E3BF00224FF08053FFF7E8BF8D
:103A800000224FF0E043FFF7E3BF21F00043194667
:103A900070470000000000002DE9F0481646C1F311
:103AA0000A5283468C460B4682B921F000430343F9
:103AB00035D02D4B0022FCF707FD2C4B83469E4250
:103AC0008C460DDA24A3D3E9002319E040F2FF77F6
:103AD000BA4209D10246FCF741FB83468C461EE000
:103AE0000B46C1F30A52363A4CF250318E420ADD8F
:103AF0001BA3D3E90023654663F31E0529461C4832
:103B0000FCF7E2FCE9E740F2FE7132448A42EFDC66
:103B1000002A08DD6FF31E5343EA0255AC465846AF
:103B20006146BDE8F08812F1350F09DA0CF0004368
:103B300043F0D27141F4B7310E4841F01F01C1E7A3
:103B400036326FF31E5343EA025558462946002287
:103B5000094BD5E7AFF3008059F3F8C21F6EA501FA
:103B60009C7500883CE4377E00005043B03CFFFF6A
:103B70009C75008859F3F8C20000903C654A2DE915
:103B8000F84F8A4306460F460B4604460ED10246BE
:103B9000FCF79AFC02460B4630463946FCF7DEFA43
:103BA00006460F4630463946BDE8F88F00290CDC42
:103BB00021F000420243F5D089B10246FCF7CCFA6D
:103BC00002460B46FCF7AAFDEAE70A1515D10021CB
:103BD00009E0E30A153A6405002BFAD0F7E70A4634
:103BE000FAE75B000131D802FBD5481E121AC1F179
:103BF000200024FA00F003438C400027A2F2FF3893
:103C00001621D2074FF400103A46C3F3130343F4CE
:103C100080135CBF5B0003EBD4734FEA430358BFD0
:103C2000640003EBD4734FEA6808640015189D42E2
:103C3000DEBF2A185B1B3F18E50F013905EB430374
:103C40004FEA44044FEA5000F0D10D4620264FF0D1
:103C50000040934200EB010C02DC13D1A44511D8C3
:103C6000BCF1000F0CEB00013EDA00293CDB02F155
:103C7000010E9B1A7246A44588BF03F1FF33A4EBE3
:103C80000C0405444FEAD47C013E0CEB43034FEA9D
:103C900044044FEA5000DCD11C431AD01E4CDFF81C
:103CA0007C90D4E90001D9E90023FCF755FAD4E966
:103CB00000AB02460B4650465946FCF781FE40B128
:103CC000D4E90001D9E90023B5F1FF3F0ED1354613
:103CD00001377B1003F17F5303F5001303EB085109
:103CE0006B0843EAC7705BE79646C2E7FCF736FA13
:103CF000D4E900AB02460B4650465946FCF756FE47
:103D000020B1AB1C08BF01370235E2E76B1C23F082
:103D10000105DEE70000F07F983D0008903D0008B7
:103D2000F8B500BFF8BC08BC9E467047F8B500BFA8
:083D3000F8BC08BC9E46704778
:103D38000000000000000000010203040607080953
:103D480002030405060708090A0B0C0D0E0F1010D4
:103D58000102000000000000000000000000000058
:103D680006D0CF43EBFD4C3E0000000000000000F1
:103D78000000004003B8E23F000000000000F03FF0
:103D8800000000000000F83F59F3F8C21F6EA501BB
:083D9800000000000000F03FF4
:043DA00035010008E1
:043DA4001101000801
:103DA800010002000400080010002000400080000C
:103DB800BF008600DB00CF00E600ED00FD008700B5
:103DC800FF00EF00000000004000790024003000F0
:103DD800190012000200780000001000FF00000027
:103DE80000010008000200100004002000127A0000
:103DF80010000000010000005C000020000000002E
:103E080058010020C0010020280200200000000006
:103E1800000000000000000000000000000000009A
:103E2800000000000000000000000000000000008A
:103E3800000000000000000000000000000000007A
:083E4800000000000000000072
:04000005080018AD2A
:00000001FF
